{
  "contractName": "Election",
  "abi": [
    {
      "constant": true,
      "inputs": [
        {
          "internalType": "uint256",
          "name": "",
          "type": "uint256"
        }
      ],
      "name": "candidates",
      "outputs": [
        {
          "internalType": "uint256",
          "name": "id",
          "type": "uint256"
        },
        {
          "internalType": "string",
          "name": "name",
          "type": "string"
        },
        {
          "internalType": "uint256",
          "name": "voteCount",
          "type": "uint256"
        }
      ],
      "payable": false,
      "stateMutability": "view",
      "type": "function"
    },
    {
      "constant": true,
      "inputs": [],
      "name": "candidatesCount",
      "outputs": [
        {
          "internalType": "uint256",
          "name": "",
          "type": "uint256"
        }
      ],
      "payable": false,
      "stateMutability": "view",
      "type": "function"
    },
    {
      "constant": false,
      "inputs": [],
      "name": "Elections",
      "outputs": [],
      "payable": false,
      "stateMutability": "nonpayable",
      "type": "function"
    }
  ],
  "bytecode": "0x608060405234801561001057600080fd5b506103be806100206000396000f3fe608060405234801561001057600080fd5b50600436106100415760003560e01c8063256db31f146100465780632d35a8a2146100505780633477ee2e1461006e575b600080fd5b61004e610123565b005b6100586101a1565b6040518082815260200191505060405180910390f35b61009a6004803603602081101561008457600080fd5b81019080803590602001909291905050506101a7565b6040518084815260200180602001838152602001828103825284818151815260200191508051906020019080838360005b838110156100e65780820151818401526020810190506100cb565b50505050905090810190601f1680156101135780820380516001836020036101000a031916815260200191505b5094505050505060405180910390f35b6101616040518060400160405280600b81526020017f43616e6469646174652031000000000000000000000000000000000000000000815250610269565b61019f6040518060400160405280600b81526020017f43616e6469646174652032000000000000000000000000000000000000000000815250610269565b565b60015481565b6000602052806000526040600020600091509050806000015490806001018054600181600116156101000203166002900480601f0160208091040260200160405190810160405280929190818152602001828054600181600116156101000203166002900480156102595780601f1061022e57610100808354040283529160200191610259565b820191906000526020600020905b81548152906001019060200180831161023c57829003601f168201915b5050505050908060020154905083565b60016000815480929190600101919050555060405180606001604052806001548152602001828152602001600081525060008060015481526020019081526020016000206000820151816000015560208201518160010190805190602001906102d39291906102e4565b506040820151816002015590505050565b828054600181600116156101000203166002900490600052602060002090601f016020900481019282601f1061032557805160ff1916838001178555610353565b82800160010185558215610353579182015b82811115610352578251825591602001919060010190610337565b5b5090506103609190610364565b5090565b61038691905b8082111561038257600081600090555060010161036a565b5090565b9056fea265627a7a723158200c6d210f014a3eb57f03a22842760a783b6f23c0838db60ac1009b82d16d391d64736f6c63430005100032",
  "source": "pragma solidity 0.5.16;\n\ncontract Election {\n\n  struct Candidate {\n    uint id;\n    string name;\n    uint voteCount;\n  }\n\n  mapping(uint => Candidate) public  candidates;\n\n  uint public candidatesCount;\n\n  function addCandidate (string memory _name) private {\n    candidatesCount ++;\n    candidates[candidatesCount] = Candidate(candidatesCount, _name, 0);\n  }\n\n  function Elections () public {\n    addCandidate(\"Candidate 1\");\n    addCandidate(\"Candidate 2\");\n  }\n\n}\n",
  "sourcePath": "/home/easye/dev/dapp/contracts/Election.sol",
  "compiler": {
    "name": "solc",
    "version": "0.5.16+commit.9c3226ce.Emscripten.clang"
  },
  "schemaVersion": "3.4.8",
  "updatedAt": "2022-07-21T15:23:11.170Z",
  "networkType": "ethereum",
  "devdoc": {
    "methods": {}
  },
  "userdoc": {
    "methods": {}
  }
}